:040BFB00020D04E201
:10080000120AFF20B3FDE4F58DF58BD28E20B30CD8
:10081000AF8DEFAD8BF508EDF50980F1D3E50994C7
:10082000D0E50894204027C28EE4F58DF58BD28E5A
:1008300030B30CAF8DEFAD8BF508EDF50980F1D33A
:10084000E5099468E5089410400DC2008009C28E45
:10085000E4F58DF58BD200300029E4F50CE50CC3EE
:100860009408509F30B3FDD28E30B30CAF8DEFADF6
:100870008BF508EDF50980F1C28EE4F58BF58D0559
:100880000C80DAE4F50C30B3FDD28E30B30CAF8DB2
:10089000EFAD8BF508EDF50980F1C28EE4F58BF52F
:1008A0008D050CE50CB408DEE4F50CE50CC39408EA
:1008B000400302080330B3FDD28E30B30CAF8DEF8E
:1008C000AD8BF508EDF50980F1C28EE4F58BF58D61
:0408D000050C80D7BC
:100AFF00D2AFD2A9D2A8D2B8C28CC28C758911AE8E
:100B0F000DAF0EAB07AA06C374DF9BFF74B19AFE3D
:100B1F00E49400FDE49400FCE4FB7A01F9F8120B75
:100B2F00A8AF038F8AAE0DAF0EAB07AA06C374DF53
:100B3F009BFF74B19AFEE49400FDE49400FCE4FB87
:0E0B4F007A01F9F8120BA88F8CC293D28C2277
:03000B000208D414
:1008D400C0E0C0F0C083C082C0D075D000C000C0EA
:1008E40001C002C003C004C005C006C007C28CAE6C
:1008F4000DAF0EAB07AA06309346C374DF9BFF749B
:10090400B19AFEE49400FDE49400FCE4FB7A01F95E
:10091400F8120BA8AF038F8AAE0DAF0EAB07AA0671
:10092400C374DF9BFF74B19AFEE49400FDE4940069
:10093400FCE4FB7A01F9F8120BA88F8CC293804473
:10094400C374FF9BFF74FF9AFEE49400FDE49400DB
:10095400FCE4FB7A01F9F8120BA8AF038F8AAE0D01
:10096400AF0EAB07AA06C374FF9BFF74FF9AFEE4A5
:100974009400FDE49400FCE4FB7A01F9F8120BA85E
:100984008F8CD293D28CD007D006D005D004D0035C
:10099400D002D001D000D0D0D082D083D0F0D0E02B
:0109A4003220
:03000300020B5D90
:100B5D00C0E0C0F0C083C082C0D075D000C000C05E
:100B6D0001C002C003C004C005C006C007C281D2C7
:100B7D0082120BEC120BEC120BEC120BEC120BECB9
:100B8D00D007D006D005D004D003D002D001D000BC
:0B0B9D00D0D0D082D083D0F0D0E03266
:0E0BEC0000007F057E907D47DDFEDEFCDFFA17
:010BFA0022D8
:03000000020A737E
:0C0A7300787FE4F6D8FD758120020ABAF5
:100BA800C2D5E830E70FB2D5E4C39BFBE49AFAE478
:100BB80099F9E498F8EC30E717B2D5120BDE120970
:100BC800E1E4C39BFBE49AFAE499F9E498F880031A
:100BD8001209E130D50DE4C39FFFE49EFEE49DFDBC
:040BE800E49CFC226B
:100A7F00020800E493A3F8E493A34003F68001F285
:100A8F0008DFF48029E493A3F85407240CC8C33378
:100A9F00C4540F4420C8834004F456800146F6DF47
:100AAF00E4800B0102040810204080900BFBE47ED1
:100ABF00019360BCA3FF543F30E509541FFEE4933C
:100ACF00A360010ECF54C025E060A840B8E493A303
:100ADF00FAE493A3F8E493A3C8C582C8CAC583CA2E
:100AEF00F0A3C8C582C8CAC583CADFE9DEE780BEE6
:010BFF0000F5
:1009A50075F008758200EF2FFFEE33FECD33CDCC09
:1009B50033CCC58233C5829BED9AEC99E58298408C
:1009C5000CF582EE9BFEED9AFDEC99FC0FD5F0D669
:1009D500E4CEFBE4CDFAE4CCF9A88222B800C1B993
:1009E5000059BA002DEC8BF084CFCECDFCE5F0CBD1
:1009F500F97818EF2FFFEE33FEED33FDEC33FCEB0A
:100A050033FB10D703994004EB99FB0FD8E5E4F9C4
:100A1500FA227818EF2FFFEE33FEED33FDEC33FCB1
:100A2500C933C910D7059BE99A4007EC9BFCE99AA5
:100A3500F90FD8E0E4C9FAE4CCFB2275F010EF2FEA
:100A4500FFEE33FEED33FDCC33CCC833C810D707EA
:100A55009BEC9AE899400AED9BFDEC9AFCE899F825
:0E0A65000FD5F0DAE4CDFBE4CCFAE4C8F922B8
:00000001FF
