:080C870057656C6C636F6D0092
:040C8F00020E04E26B
:100C3C00120AFF120C657BFF7A0C7987750D017D0A
:100C4C0007120B5D1209CC8F087B007A00790875AE
:090C5C000D017D01120B5D80DD2C
:100AFF00D2AFD2A9D2A8D2B8C28CC28C758911AE8E
:100B0F000EAF0FAB07AA06C374DF9BFF74B19AFE3B
:100B1F00E49400FDE49400FCE4FB7A01F9F8120B75
:100B2F00F8AF038F8AAE0EAF0FAB07AA06C374DF01
:100B3F009BFF74B19AFEE49400FDE49400FCE4FB87
:0E0B4F007A01F9F8120BF88F8CC293D28C2227
:03000B000208FBED
:1008FB00C0E0C0F0C083C082C0D075D000C000C0C3
:10090B0001C002C003C004C005C006C007C28CAE44
:10091B000EAF0FAB07AA06309346C374DF9BFF7471
:10092B00B19AFEE49400FDE49400FCE4FB7A01F937
:10093B00F8120BF8AF038F8AAE0EAF0FAB07AA06F8
:10094B00C374DF9BFF74B19AFEE49400FDE4940042
:10095B00FCE4FB7A01F9F8120BF88F8CC2938044FC
:10096B00C374FF9BFF74FF9AFEE49400FDE49400B4
:10097B00FCE4FB7A01F9F8120BF8AF038F8AAE0E89
:10098B00AF0FAB07AA06C374FF9BFF74FF9AFEE47D
:10099B009400FDE49400FCE4FB7A01F9F8120BF8E7
:1009AB008F8CD293D28CD007D006D005D004D00335
:1009BB00D002D001D000D0D0D082D083D0F0D0E004
:0109CB0032F9
:03000300020BAD40
:100BAD00C0E0C0F0C083C082C0D075D000C000C00E
:100BBD0001C002C003C004C005C006C007C281D277
:100BCD0082120C78120C78120C78120C78120C78A8
:100BDD00D007D006D005D004D003D002D001D0006C
:0B0BED00D0D0D082D083D0F0D0E03216
:0E0C780000007F057E907D47DDFEDEFCDFFA8A
:010C8600224B
:1009CC0030B303020A68E4F58DF58BD28E20B31098
:1009DC00AF8DEFFEAC8BECF582EEFAE582FB80ED91
:1009EC00D3EB94D0EA94204025C28EE4F58DF58BA0
:1009FC00D28E30B30CAF8DEFFEAC8BECFBEEFA80ED
:100A0C00F1D3EB9468EA9410400DC2008009C28EB9
:100A1C00E4F58DF58BD200200021E4FD30B3FDD23E
:100A2C008E30B30CAF8DEFFEAC8BECFBEEFA80F19D
:100A3C00C28EE4F58BF58D0DBD08E1E4FD30B3FD00
:100A4C00D28E30B30CAF8DEFFEAC8BECFBEEFA809C
:100A5C00F1C28EE4F58BF58D0DBD08E1E509B4A569
:060A6C0003AF0A227F0027
:010A72002261
:100C650053877F759850438E04759CD9438E0143F5
:030C75008E1022BC
:080B5D008B098A0A890B8D0C3B
:100B6500E4FFFEAD0CED3395E0FCC3EF9DEC648036
:100B7500F8EE648098501BAB09AA0AA90B8F828EE8
:100B850083120800F5993099FDC2990FBF00010E37
:100B950080D1E50DB4011075990D3099FDC2997597
:070BA500990A3099FDC29985
:010BAC002226
:03000000020A737E
:0C0A7300787FE4F6D8FD758120020ABAF5
:10080000BB010CE58229F582E5833AF583E02250AD
:1008100006E92582F8E622BBFE06E92582F8E222F7
:0D082000E58229F582E5833AF583E4932211
:100BF800C2D5E830E70FB2D5E4C39BFBE49AFAE428
:100C080099F9E498F8EC30E717B2D5120C2E1208CF
:100C180069E4C39BFBE49AFAE499F9E498F8800341
:100C280012086930D50DE4C39FFFE49EFEE49DFDE4
:040C3800E49CFC221A
:100A7F00020C3CE493A3F8E493A34003F68001F245
:100A8F0008DFF48029E493A3F85407240CC8C33378
:100A9F00C4540F4420C8834004F456800146F6DF47
:100AAF00E4800B0102040810204080900C8FE47E3C
:100ABF00019360BCA3FF543F30E509541FFEE4933C
:100ACF00A360010ECF54C025E060A840B8E493A303
:100ADF00FAE493A3F8E493A3C8C582C8CAC583CA2E
:100AEF00F0A3C8C582C8CAC583CADFE9DEE780BEE6
:010C93000060
:10082D0075F008758200EF2FFFEE33FECD33CDCC82
:10083D0033CCC58233C5829BED9AEC99E582984005
:10084D000CF582EE9BFEED9AFDEC99FC0FD5F0D6E2
:10085D00E4CEFBE4CDFAE4CCF9A88222B800C1B90C
:10086D000059BA002DEC8BF084CFCECDFCE5F0CB4A
:10087D00F97818EF2FFFEE33FEED33FDEC33FCEB83
:10088D0033FB10D703994004EB99FB0FD8E5E4F93E
:10089D00FA227818EF2FFFEE33FEED33FDEC33FC2B
:1008AD00C933C910D7059BE99A4007EC9BFCE99A1F
:1008BD00F90FD8E0E4C9FAE4CCFB2275F010EF2F64
:1008CD00FFEE33FEED33FDCC33CCC833C810D70764
:1008DD009BEC9AE899400AED9BFDEC9AFCE899F89F
:0E08ED000FD5F0DAE4CDFBE4CCFAE4C8F92232
:00000001FF
