:100A1600120AAB120AC4E50A24FE601B24FE601DFE
:100A260024FD602D146020240324FA5030240A701B
:100A360020D281C2828026C281D2828020C28C7559
:100A460008037509E88016C28C7508057509DC80EF
:100A56000CC28C7508047509E2C281C282D28C80F0
:010A6600B5DA
:100AAB00D2AFD2A9D2A8D2AAD2B8D2BA75B730D205
:090ABB008AC28C758901C29322E4
:03000B00020800E8
:10080000C0E0C0F0C083C082C0D075D000C000C0BE
:1008100001C002C003C004C005C006C007C28CAE40
:1008200008AF09AB07AA06309346C374DF9BFF7479
:10083000B19AFEE49400FDE49400FCE4FB7A01F933
:10084000F8120A67AF038F8AAE08AF09AB07AA0692
:10085000C374DF9BFF74B19AFEE49400FDE494003E
:10086000FCE4FB7A01F9F8120A678F8CC29380448A
:10087000C374FF9BFF74FF9AFEE49400FDE49400B0
:10088000FCE4FB7A01F9F8120A67AF038F8AAE081D
:10089000AF09AB07AA06C374FF9BFF74FF9AFEE47F
:1008A0009400FDE49400FCE4FB7A01F9F8120A6775
:1008B0008F8CD293D28CD007D006D005D004D00331
:1008C000D002D001D000D0D0D082D083D0F0D0E000
:0108D00032F5
:03000300020AEB03
:050AEB00C281D282323D
:0300130002099F40
:10099F00C0E0C0D075D000C000C004C005C006C004
:0109AF000740
:1009B00020B3070DBD00010C80F6C3ED9428EC9424
:1009C0003D40447C007D0030B3070DBD00010C802C
:1009D000F6C3ED94B8EC940B402DE4FE7C007D0052
:1009E00020B3070DBD00010C80F6D3ED9434EC94D8
:1009F00007400D7F01A806EF08800123D8FD420AB9
:070A000020B3FD0EBE08D576
:0F0A0700D007D006D005D004D000D0D0D0E03238
:100AC40053877F759850438E04759CD9438E014398
:030AD4008E10225F
:080AE3008F993099FDC29922A0
:03000000020AD71A
:0C0AD700787FE4F6D8FD75810A020A164B
:100A6700C2D5E830E70FB2D5E4C39BFBE49AFAE4BA
:100A770099F9E498F8EC30E717B2D5120A9D1209F4
:100A87000DE4C39BFBE49AFAE499F9E498F8800330
:100A970012090D30D50DE4C39FFFE49EFEE49DFDD2
:040AA700E49CFC22AD
:1008D10075F008758200EF2FFFEE33FECD33CDCCDE
:1008E10033CCC58233C5829BED9AEC99E582984061
:1008F1000CF582EE9BFEED9AFDEC99FC0FD5F0D63E
:10090100E4CEFBE4CDFAE4CCF9A88222B800C1B967
:100911000059BA002DEC8BF084CFCECDFCE5F0CBA5
:10092100F97818EF2FFFEE33FEED33FDEC33FCEBDE
:1009310033FB10D703994004EB99FB0FD8E5E4F999
:10094100FA227818EF2FFFEE33FEED33FDEC33FC86
:10095100C933C910D7059BE99A4007EC9BFCE99A7A
:10096100F90FD8E0E4C9FAE4CCFB2275F010EF2FBF
:10097100FFEE33FEED33FDCC33CCC833C810D707BF
:100981009BEC9AE899400AED9BFDEC9AFCE899F8FA
:0E0991000FD5F0DAE4CDFBE4CCFAE4C8F9228D
:00000001FF
