:040C7300020804E28D
:100C2B00120B3A120C49E50AB40406750803750950
:0E0C3B00E8E50AB404F07508057509DC80E8E8
:100B3A00D2AFD2A9D2A8D2AAD28AD2B8C28CC28C37
:100B4A00758911AE08AF09AB07AA06C374DF9BFF0C
:100B5A0074B19AFEE49400FDE49400FCE4FB7A018B
:100B6A00F9F8120BE7AF038F8AAE08AF09AB07AAF1
:100B7A0006C374DF9BFF74B19AFEE49400FDE4940B
:100B8A0000FCE4FB7A01F9F8120BE78F8CC293D2CE
:020B9A008C22AB
:03000B0002090FD8
:10090F00C0E0C0F0C083C082C0D075D000C000C0AE
:10091F0001C002C003C004C005C006C007C28CAE30
:10092F0008AF09AB07AA06309346C374DF9BFF7469
:10093F00B19AFEE49400FDE49400FCE4FB7A01F923
:10094F00F8120BE7AF038F8AAE08AF09AB07AA0601
:10095F00C374DF9BFF74B19AFEE49400FDE494002E
:10096F00FCE4FB7A01F9F8120BE78F8CC2938044F9
:10097F00C374FF9BFF74FF9AFEE49400FDE49400A0
:10098F00FCE4FB7A01F9F8120BE7AF038F8AAE088C
:10099F00AF09AB07AA06C374FF9BFF74FF9AFEE46F
:1009AF009400FDE49400FCE4FB7A01F9F8120BE7E4
:1009BF008F8CD293D28CD007D006D005D004D00321
:1009CF00D002D001D000D0D0D082D083D0F0D0E0F0
:0109DF0032E5
:03000300020B9C51
:100B9C00C0E0C0F0C083C082C0D075D000C000C01F
:100BAC0001C002C003C004C005C006C007C281D288
:100BBC0082120C5C120C5C120C5C120C5C120C5C45
:100BCC00D007D006D005D004D003D002D001D0007D
:0B0BDC00D0D0D082D083D0F0D0E03227
:0E0C5C0000007F057E907D47DDFEDEFCDFFAA6
:010C6A002267
:03001300020800E0
:10080000C0E0C0F0C083C082C0D075D000C000C0BE
:0D08100001C002C003C004C005C006C0073F
:10081D00750A0020B30A050CE50C70F7050B80F383
:10082D00AF0C120C6BC3E50C94D0E50B9420401962
:10083D00750B00750C0020B3FD30B3FD30B31D05F5
:10084D000CE50C70F7050B80F3750B00750C003083
:10085D00B30A050CE50C70F7050B80F3C3E50C949A
:10086D0034E50B94074003430D01E4FFFE30B3FD67
:10087D00750B00750C0030B30A050CE50C70F7050F
:10088D000B80F3C3E50C9434E50B9407400FAD07D3
:10089D007402A805088002C333D8FC420D0FBF00B7
:1008AD00010EEF64074E70C57E007F0030B3FD75FD
:1008BD000B00750C0030B30A050CE50C70F7050B39
:1008CD0080F3C3E50C9434E50B9407400FAD07742A
:1008DD0001A805088002C333D8FC420A0FBF0001EE
:0708ED000EEF64084E70C518
:1008F400D007D006D005D004D003D002D001D00058
:0B090400D0D0D082D083D0F0D0E03201
:100C490053877F759850438E04759CD9438E014311
:030C59008E1022D8
:080C6B008F993099FDC2992216
:03000000020AAE43
:0C0AAE00787FE4F6D8FD75810D020AF592
:100BE700C2D5E830E70FB2D5E4C39BFBE49AFAE439
:100BF70099F9E498F8EC30E717B2D5120C1D120AF0
:100C07001CE4C39BFBE49AFAE499F9E498F880039F
:100C1700120A1C30D50DE4C39FFFE49EFEE49DFD40
:040C2700E49CFC222B
:100ABA00020C2BE493A3F8E493A34003F68001F21B
:100ACA0008DFF48029E493A3F85407240CC8C3333D
:100ADA00C4540F4420C8834004F456800146F6DF0C
:100AEA00E4800B0102040810204080900C73E47E1D
:100AFA00019360BCA3FF543F30E509541FFEE49301
:100B0A00A360010ECF54C025E060A840B8E493A3C7
:100B1A00FAE493A3F8E493A3C8C582C8CAC583CAF2
:100B2A00F0A3C8C582C8CAC583CADFE9DEE780BEAA
:010C7700007C
:1009E00075F008758200EF2FFFEE33FECD33CDCCCE
:1009F00033CCC58233C5829BED9AEC99E582984051
:100A00000CF582EE9BFEED9AFDEC99FC0FD5F0D62D
:100A1000E4CEFBE4CDFAE4CCF9A88222B800C1B957
:100A20000059BA002DEC8BF084CFCECDFCE5F0CB95
:100A3000F97818EF2FFFEE33FEED33FDEC33FCEBCE
:100A400033FB10D703994004EB99FB0FD8E5E4F989
:100A5000FA227818EF2FFFEE33FEED33FDEC33FC76
:100A6000C933C910D7059BE99A4007EC9BFCE99A6A
:100A7000F90FD8E0E4C9FAE4CCFB2275F010EF2FAF
:100A8000FFEE33FEED33FDCC33CCC833C810D707AF
:100A90009BEC9AE899400AED9BFDEC9AFCE899F8EA
:0E0AA0000FD5F0DAE4CDFBE4CCFAE4C8F9227D
:00000001FF
