:070C7E00010E00020C04E26C
:100A8E00120BB0120C60AF0E120C73E50E120800B2
:100A9E000B19000AC0010ACC020B19030AD8040A6A
:100AAE00E0050AEC060AF8080B00090B0C0A000018
:100ABE000A94D281C282750C04750DE280C8C2817F
:100ACE00D282750C04750DE280BC750C04750D1A7E
:100ADE0080B4D281C282750C04750D1A80A8C281B1
:100AEE00D282750C04750D1A809C750C05750D78E7
:100AFE008094D281C282750C05750D788088C28172
:100B0E00D282750C05750D78020A94D281D28202BA
:060B1E000A94020A942271
:100BB000D2AFD2A9D2A8D2AAD2BAC28CC28C75891D
:100BC00011AE0CAF0DAB07AA06E4F9F8C374DF9BB6
:100BD000FF74B19AFEE499FDE498FC7B007A0179F8
:100BE000007800120C1CAC00AD01AE02AF038F8A7E
:100BF000AE0CAF0DAB07AA06E4F9F8C374DF9BFF98
:100C000074B19AFEE499FDE498FC7B007A017900C6
:0C0C10007800120C1C8F8CC293D28C2236
:03000B000208F4F4
:1008F400C0E0C0F0C083C082C0D075D000C000C0CA
:1009040001C002C003C004C005C006C007C28C30C9
:10091400935AAE0CAF0DAB07AA06E4F9F8C374DF23
:100924009BFF74B19AFEE499FDE498FC7B007A0184
:1009340079007800120C1CAC00AD01AE02AF038F3D
:100944008AAE0CAF0DAB07AA06E4F9F8C374DF9BBB
:10095400FF74B19AFEE499FDE498FC7B007A017976
:10096400007800120C1C8F8CC2938058AE0CAF0D13
:10097400AB07AA06E4F9F8C374FF9BFF74FF9AFE61
:10098400E499FDE498FC7B007A0179007800120C6C
:100994001CAC00AD01AE02AF038F8AAE0CAF0DAB41
:1009A40007AA06E4F9F8C374FF9BFF74FF9AFEE4F8
:1009B40099FDE498FC7B007A0179007800120C1C04
:1009C4008F8CD293D28CD007D006D005D004D0031C
:1009D400D002D001D000D0D0D082D083D0F0D0E0EB
:0109E40032E0
:03000300020C8666
:050C8600D281D2823290
:030013000209E5FA
:0D09E500C0E0C0D075D000C000C006C00743
:1009F20020B30A050BE50B7002050A80F3C3E50B71
:100A02009428E50A943D4079C3E50B9428E50A94BD
:100A12003D406E750A00750B0030B30A050BE50BFD
:100A22007002050A80F3C3E50B94B8E50A940B4003
:100A320050750E00750800750900C3E5099408E5B4
:100A4200089400503C750A00750B0020B30A050B90
:100A5200E50B7002050A80F3D3E50B94E8E50A94EE
:100A62000340117F01AE09A806EF08800123D8FDDB
:100A7200FFEF420E20B3FD0509E50970020508806B
:010A8200B9BA
:0B0A8300D007D006D000D0D0D0E03269
:100C600053877F759850438E04759CD9438E0143FA
:030C70008E1022C1
:0B0C73008F0F850F993099FDC2992268
:03000000020B24CC
:0C0B2400787FE4F6D8FD758120020B6B91
:100C1C00C2D5E830E70FB2D5E4C39BFBE49AFAE403
:100C2C0099F9E498F8EC30E717B2D5120C52120887
:100C3C0062E4C39BFBE49AFAE499F9E498F8800324
:100C4C0012086230D50DE4C39FFFE49EFEE49DFDC7
:040C5C00E49CFC22F6
:10080000D083D082F8E4937012740193700DA3A387
:1008100093F8740193F5828883E47374029368609B
:06082000EFA3A3A380DF9B
:100B3000020A8EE493A3F8E493A34003F68001F243
:100B400008DFF48029E493A3F85407240CC8C333C6
:100B5000C4540F4420C8834004F456800146F6DF95
:100B6000E4800B0102040810204080900C7EE47E9B
:100B7000019360BCA3FF543F30E509541FFEE4938A
:100B8000A360010ECF54C025E060A840B8E493A351
:100B9000FAE493A3F8E493A3C8C582C8CAC583CA7C
:100BA000F0A3C8C582C8CAC583CADFE9DEE780BE34
:010C8500006E
:1008260075F008758200EF2FFFEE33FECD33CDCC89
:1008360033CCC58233C5829BED9AEC99E58298400C
:100846000CF582EE9BFEED9AFDEC99FC0FD5F0D6E9
:10085600E4CEFBE4CDFAE4CCF9A88222B800C1B913
:100866000059BA002DEC8BF084CFCECDFCE5F0CB51
:10087600F97818EF2FFFEE33FEED33FDEC33FCEB8A
:1008860033FB10D703994004EB99FB0FD8E5E4F945
:10089600FA227818EF2FFFEE33FEED33FDEC33FC32
:1008A600C933C910D7059BE99A4007EC9BFCE99A26
:1008B600F90FD8E0E4C9FAE4CCFB2275F010EF2F6B
:1008C600FFEE33FEED33FDCC33CCC833C810D7076B
:1008D6009BEC9AE899400AED9BFDEC9AFCE899F8A6
:0E08E6000FD5F0DAE4CDFBE4CCFAE4C8F92239
:00000001FF
