:040BB800020C04E245
:100A2B00120AA1120B8E20B30A050AE50A70F7050C
:100A3B000980F3C3E50A9428E509943D40E8E4F501
:100A4B0009F50A30B30A050AE50A70F7050980F3C0
:100A5B00C3E50A94B8E509940B40CBE4F50BE50B21
:100A6B00C3940850C1E4F509F50A20B30A050AE559
:100A7B000A70F7050980F3D3E50A9434E509940766
:100A8B00400D7F01A80BEF08800123D8FD42082001
:060A9B00B3FD050B80C84D
:100AA100D2AFD2A9D2A8D2B8C28CC28C758911AEEC
:100AB1000CAF0DAB07AA06C374DF9BFF74B19AFE9E
:100AC100E49400FDE49400FCE4FB7A01F9F8120BD4
:100AD1004AAF038F8AAE0CAF0DAB07AA06C374DF12
:100AE1009BFF74B19AFEE49400FDE49400FCE4FBE6
:0E0AF1007A01F9F8120B4A8F8CC293D28C2234
:03000B00020800E8
:10080000C0E0C0F0C083C082C0D075D000C000C0BE
:1008100001C002C003C004C005C006C007C28CAE40
:100820000CAF0DAB07AA06309346C374DF9BFF7471
:10083000B19AFEE49400FDE49400FCE4FB7A01F933
:10084000F8120B4AAF038F8AAE0CAF0DAB07AA06A6
:10085000C374DF9BFF74B19AFEE49400FDE494003E
:10086000FCE4FB7A01F9F8120B4A8F8CC2938044A6
:10087000C374FF9BFF74FF9AFEE49400FDE49400B0
:10088000FCE4FB7A01F9F8120B4AAF038F8AAE0C35
:10089000AF0DAB07AA06C374FF9BFF74FF9AFEE47B
:1008A0009400FDE49400FCE4FB7A01F9F8120B4A91
:1008B0008F8CD293D28CD007D006D005D004D00331
:1008C000D002D001D000D0D0D082D083D0F0D0E000
:0108D00032F5
:03000300020AFFEF
:100AFF00C0E0C0F0C083C082C0D075D000C000C0BD
:100B0F0001C002C003C004C005C006C007C281D225
:100B1F0082120BA1120BA1120BA1120BA1120BA18E
:100B2F00D007D006D005D004D003D002D001D0001A
:0B0B3F00D0D0D082D083D0F0D0E032C4
:0E0BA10000007F057E907D47DDFEDEFCDFFA62
:010BAF002223
:100B8E0053877F759850438E04759CD9438E0143CD
:030B9E008E102294
:080BB0008F993099FDC29922D2
:0300000002099F53
:0C099F00787FE4F6D8FD75810D0209E6B2
:100B4A00C2D5E830E70FB2D5E4C39BFBE49AFAE4D6
:100B5A0099F9E498F8EC30E717B2D5120B8012092C
:100B6A000DE4C39BFBE49AFAE499F9E498F880034C
:100B7A0012090D30D50DE4C39FFFE49EFEE49DFDEE
:040B8A00E49CFC22C9
:1009AB00020A2BE493A3F8E493A34003F68001F22D
:1009BB0008DFF48029E493A3F85407240CC8C3334D
:1009CB00C4540F4420C8834004F456800146F6DF1C
:1009DB00E4800B0102040810204080900BB8E47EE9
:1009EB00019360BCA3FF543F30E509541FFEE49311
:1009FB00A360010ECF54C025E060A840B8E493A3D8
:100A0B00FAE493A3F8E493A3C8C582C8CAC583CA02
:100A1B00F0A3C8C582C8CAC583CADFE9DEE780BEBA
:010BBC000038
:1008D10075F008758200EF2FFFEE33FECD33CDCCDE
:1008E10033CCC58233C5829BED9AEC99E582984061
:1008F1000CF582EE9BFEED9AFDEC99FC0FD5F0D63E
:10090100E4CEFBE4CDFAE4CCF9A88222B800C1B967
:100911000059BA002DEC8BF084CFCECDFCE5F0CBA5
:10092100F97818EF2FFFEE33FEED33FDEC33FCEBDE
:1009310033FB10D703994004EB99FB0FD8E5E4F999
:10094100FA227818EF2FFFEE33FEED33FDEC33FC86
:10095100C933C910D7059BE99A4007EC9BFCE99A7A
:10096100F90FD8E0E4C9FAE4CCFB2275F010EF2FBF
:10097100FFEE33FEED33FDCC33CCC833C810D707BF
:100981009BEC9AE899400AED9BFDEC9AFCE899F8FA
:0E0991000FD5F0DAE4CDFBE4CCFAE4C8F9228D
:00000001FF
