:040BBB00020804E246
:100B9100120AA2E50AB404067508037509E8E50A14
:0B0BA100B404F07508057509DC80E85D
:100AA200D2AFD2A9D2A8D2AAD2B8C28CC28C75892E
:100AB20011AE08AF09AB07AA06C374DF9BFF74B17E
:100AC2009AFEE49400FDE49400FCE4FB7A01F9F858
:100AD200120B4DAF038F8AAE08AF09AB07AA06C34C
:100AE20074DF9BFF74B19AFEE49400FDE49400FC71
:100AF200E4FB7A01F9F8120B4D8F8CC293D28C224F
:03000B00020800E8
:10080000C0E0C0F0C083C082C0D075D000C000C0BE
:1008100001C002C003C004C005C006C007C28CAE40
:1008200008AF09AB07AA06309346C374DF9BFF7479
:10083000B19AFEE49400FDE49400FCE4FB7A01F933
:10084000F8120B4DAF038F8AAE08AF09AB07AA06AB
:10085000C374DF9BFF74B19AFEE49400FDE494003E
:10086000FCE4FB7A01F9F8120B4D8F8CC2938044A3
:10087000C374FF9BFF74FF9AFEE49400FDE49400B0
:10088000FCE4FB7A01F9F8120B4DAF038F8AAE0836
:10089000AF09AB07AA06C374FF9BFF74FF9AFEE47F
:1008A0009400FDE49400FCE4FB7A01F9F8120B4D8E
:1008B0008F8CD293D28CD007D006D005D004D00331
:1008C000D002D001D000D0D0D082D083D0F0D0E000
:0108D00032F5
:03000300020B02EB
:100B0200C0E0C0F0C083C082C0D075D000C000C0B9
:100B120001C002C003C004C005C006C007C281D222
:100B220082120BAC120BAC120BAC120BAC120BAC54
:100B3200D007D006D005D004D003D002D001D00017
:0B0B4200D0D0D082D083D0F0D0E032C1
:0E0BAC0000007F057E907D47DDFEDEFCDFFA57
:010BBA002218
:03001300020A2BB3
:100A2B00C0E0C0D075D000C000C004C005C006C077
:010A3B0007B3
:100A3C0020B3070DBD00010C80F6C3ED9428EC9497
:100A4C003D40447C007D0030B3070DBD00010C809F
:100A5C00F6C3ED94B8EC940B402DE4FE7C007D00C5
:100A6C0020B3070DBD00010C80F6D3ED9434EC944B
:100A7C0007400D7F01A806EF08800123D8FD420A2C
:070A8C0020B3FD0EBE08D5EA
:0F0A9300D007D006D005D004D000D0D0D0E032AC
:0300000002099F53
:0C099F00787FE4F6D8FD75810A0209E6B5
:100B4D00C2D5E830E70FB2D5E4C39BFBE49AFAE4D3
:100B5D0099F9E498F8EC30E717B2D5120B83120926
:100B6D000DE4C39BFBE49AFAE499F9E498F8800349
:100B7D0012090D30D50DE4C39FFFE49EFEE49DFDEB
:040B8D00E49CFC22C6
:1009AB00020B91E493A3F8E493A34003F68001F2C6
:1009BB0008DFF48029E493A3F85407240CC8C3334D
:1009CB00C4540F4420C8834004F456800146F6DF1C
:1009DB00E4800B0102040810204080900BBBE47EE6
:1009EB00019360BCA3FF543F30E509541FFEE49311
:1009FB00A360010ECF54C025E060A840B8E493A3D8
:100A0B00FAE493A3F8E493A3C8C582C8CAC583CA02
:100A1B00F0A3C8C582C8CAC583CADFE9DEE780BEBA
:010BBF000035
:1008D10075F008758200EF2FFFEE33FECD33CDCCDE
:1008E10033CCC58233C5829BED9AEC99E582984061
:1008F1000CF582EE9BFEED9AFDEC99FC0FD5F0D63E
:10090100E4CEFBE4CDFAE4CCF9A88222B800C1B967
:100911000059BA002DEC8BF084CFCECDFCE5F0CBA5
:10092100F97818EF2FFFEE33FEED33FDEC33FCEBDE
:1009310033FB10D703994004EB99FB0FD8E5E4F999
:10094100FA227818EF2FFFEE33FEED33FDEC33FC86
:10095100C933C910D7059BE99A4007EC9BFCE99A7A
:10096100F90FD8E0E4C9FAE4CCFB2275F010EF2FBF
:10097100FFEE33FEED33FDCC33CCC833C810D707BF
:100981009BEC9AE899400AED9BFDEC9AFCE899F8FA
:0E0991000FD5F0DAE4CDFBE4CCFAE4C8F9228D
:00000001FF
