:040ACC00020804E236
:070AC500120A2BD28C80FE07
:100A2B00D2AFD2A9C28C758901AE08AF09AB07AAA8
:100A3B0006C374DF9BFF74B19AFEE49400FDE4944B
:100A4B0000FCE4FB7A01F9F8120A81AF038F8AAE3E
:100A5B0008AF09AB07AA06C374DF9BFF74B19AFEFC
:100A6B00E49400FDE49400FCE4FB7A01F9F8120A2B
:060A7B00818F8CC2932262
:03000B00020800E8
:10080000C0E0C0F0C083C082C0D075D000C000C0BE
:1008100001C002C003C004C005C006C007C28CAE40
:1008200008AF09AB07AA06309346C374DF9BFF7479
:10083000B19AFEE49400FDE49400FCE4FB7A01F933
:10084000F8120A81AF038F8AAE08AF09AB07AA0678
:10085000C374DF9BFF74B19AFEE49400FDE494003E
:10086000FCE4FB7A01F9F8120A818F8CC293804470
:10087000C374FF9BFF74FF9AFEE49400FDE49400B0
:10088000FCE4FB7A01F9F8120A81AF038F8AAE0803
:10089000AF09AB07AA06C374FF9BFF74FF9AFEE47F
:1008A0009400FDE49400FCE4FB7A01F9F8120A815B
:1008B0008F8CD293D28CD007D006D005D004D00331
:1008C000D002D001D000D0D0D082D083D0F0D0E000
:0108D00032F5
:0300000002099F53
:0C099F00787FE4F6D8FD7581090209E6B6
:100A8100C2D5E830E70FB2D5E4C39BFBE49AFAE4A0
:100A910099F9E498F8EC30E717B2D5120AB71209C0
:100AA1000DE4C39BFBE49AFAE499F9E498F8800316
:100AB10012090D30D50DE4C39FFFE49EFEE49DFDB8
:040AC100E49CFC2293
:1009AB00020AC5E493A3F8E493A34003F68001F293
:1009BB0008DFF48029E493A3F85407240CC8C3334D
:1009CB00C4540F4420C8834004F456800146F6DF1C
:1009DB00E4800B0102040810204080900ACCE47ED6
:1009EB00019360BCA3FF543F30E509541FFEE49311
:1009FB00A360010ECF54C025E060A840B8E493A3D8
:100A0B00FAE493A3F8E493A3C8C582C8CAC583CA02
:100A1B00F0A3C8C582C8CAC583CADFE9DEE780BEBA
:010AD0000025
:1008D10075F008758200EF2FFFEE33FECD33CDCCDE
:1008E10033CCC58233C5829BED9AEC99E582984061
:1008F1000CF582EE9BFEED9AFDEC99FC0FD5F0D63E
:10090100E4CEFBE4CDFAE4CCF9A88222B800C1B967
:100911000059BA002DEC8BF084CFCECDFCE5F0CBA5
:10092100F97818EF2FFFEE33FEED33FDEC33FCEBDE
:1009310033FB10D703994004EB99FB0FD8E5E4F999
:10094100FA227818EF2FFFEE33FEED33FDEC33FC86
:10095100C933C910D7059BE99A4007EC9BFCE99A7A
:10096100F90FD8E0E4C9FAE4CCFB2275F010EF2FBF
:10097100FFEE33FEED33FDCC33CCC833C810D707BF
:100981009BEC9AE899400AED9BFDEC9AFCE899F8FA
:0E0991000FD5F0DAE4CDFBE4CCFAE4C8F9228D
:00000001FF
