:100A4600120ADB120AF4E50A24FE601B24FE601D6E
:100A560024FD602D146020240324FA5030240A70EB
:100A660020D281C2828026C281D2828020C28C7529
:100A760008037509E88016C28C7508057509DC80BF
:100A86000CC28C7508047509E2C281C282D28C80C0
:010A9600B5AA
:100ADB00D2AFD2A9D2A8D2AAD2B8D2BA75B730D2D5
:090AEB008AC28C758901C29322B4
:03000B00020800E8
:10080000C0E0C0F0C083C082C0D075D000C000C0BE
:1008100001C002C003C004C005C006C007C28CAE40
:1008200008AF09AB07AA06309346C374DF9BFF7479
:10083000B19AFEE49400FDE49400FCE4FB7A01F933
:10084000F8120A97AF038F8AAE08AF09AB07AA0662
:10085000C374DF9BFF74B19AFEE49400FDE494003E
:10086000FCE4FB7A01F9F8120A978F8CC29380445A
:10087000C374FF9BFF74FF9AFEE49400FDE49400B0
:10088000FCE4FB7A01F9F8120A97AF038F8AAE08ED
:10089000AF09AB07AA06C374FF9BFF74FF9AFEE47F
:1008A0009400FDE49400FCE4FB7A01F9F8120A9745
:1008B0008F8CD293D28CD007D006D005D004D00331
:1008C000D002D001D000D0D0D082D083D0F0D0E000
:0108D00032F5
:03000300020B1BD2
:050B1B00C281D282320C
:0300130002099F40
:10099F00C0E0C0F0C083C082C0D075D000C000C01E
:0D09AF0001C002C003C004C005C006C0079F
:1009BC0020B30A050CE50C70F7050B80F3C3E50CAE
:1009CC009428E50B943D4052750B00750C0030B328
:1009DC000A050CE50C70F7050B80F3C3E50C94B815
:1009EC00E50B940B4034E4FE750B00750C0020B342
:1009FC000A050CE50C70F7050B80F3D3E50C943469
:100A0C00E50B9407400D7F01A806EF08800123D861
:0F0A1C00FD420A20B3FD0EBE08CEAF0A120B1327
:100A2B00D007D006D005D004D003D002D001D0001F
:0B0A3B00D0D0D082D083D0F0D0E032C9
:100AF40053877F759850438E04759CD9438E014368
:030B04008E10222E
:080B13008F993099FDC299226F
:03000000020B07E9
:0C0B0700787FE4F6D8FD75810C020A46E8
:100A9700C2D5E830E70FB2D5E4C39BFBE49AFAE48A
:100AA70099F9E498F8EC30E717B2D5120ACD120994
:100AB7000DE4C39BFBE49AFAE499F9E498F8800300
:100AC70012090D30D50DE4C39FFFE49EFEE49DFDA2
:040AD700E49CFC227D
:1008D10075F008758200EF2FFFEE33FECD33CDCCDE
:1008E10033CCC58233C5829BED9AEC99E582984061
:1008F1000CF582EE9BFEED9AFDEC99FC0FD5F0D63E
:10090100E4CEFBE4CDFAE4CCF9A88222B800C1B967
:100911000059BA002DEC8BF084CFCECDFCE5F0CBA5
:10092100F97818EF2FFFEE33FEED33FDEC33FCEBDE
:1009310033FB10D703994004EB99FB0FD8E5E4F999
:10094100FA227818EF2FFFEE33FEED33FDEC33FC86
:10095100C933C910D7059BE99A4007EC9BFCE99A7A
:10096100F90FD8E0E4C9FAE4CCFB2275F010EF2FBF
:10097100FFEE33FEED33FDCC33CCC833C810D707BF
:100981009BEC9AE899400AED9BFDEC9AFCE899F8FA
:0E0991000FD5F0DAE4CDFBE4CCFAE4C8F9228D
:00000001FF
