:070C5B00011100020F04E289
:100B9800120B26E51160FCE5111208FD0BC3010BD1
:100BA800C9020BE7030BCF040B9B050B9B060BDB62
:100BB800080B9B090B9B0A00000B9BD281C2828009
:100BC800D2D282C28180CC750F0475101A80C4807D
:100BD800C280C0750F0575107880B880B680B4D211
:0E0BE80081D282750F047510E280A880A622CB
:100B2600D2AFD2A9D2A8D2AAD2B8C28CC28C7589A9
:100B360011AE0FAF10AB07AA06EA3395E0F9F8C37A
:100B460074DF9BFF74B19AFEE499FDE498FC7B0088
:100B56007A0179007800120BF6AC00AD01AE02AF57
:100B6600038F8AAE0FAF10AB07AA06EA3395E0F9FA
:100B7600F8C374DF9BFF74B19AFEE499FDE498FC18
:100B86007B007A0179007800120BF68F8CC293D223
:020B96008C22AF
:03000B00020800E8
:10080000C0E0C0F0C083C082C0D075D000C000C0BE
:1008100001C002C003C004C005C006C007C28C30BE
:100820009360AE0FAF10AB07AA06EA3395E0F9F874
:10083000C374DF9BFF74B19AFEE499FDE498FC7BDE
:10084000007A0179007800120BF6AC00AD01AE021F
:10085000AF038F8AAE0FAF10AB07AA06EA3395E05D
:10086000F9F8C374DF9BFF74B19AFEE499FDE49834
:10087000FC7B007A0179007800120BF68F8CC29312
:10088000805EAE0FAF10AB07AA06EA3395E0F9F829
:10089000C374FF9BFF74FF9AFEE499FDE498FC7B10
:1008A000007A0179007800120BF6AC00AD01AE02BF
:1008B000AF038F8AAE0FAF10AB07AA06EA3395E0FD
:1008C000F9F8C374FF9BFF74FF9AFEE499FDE49866
:1008D000FC7B007A0179007800120BF68F8CD293A2
:1008E000D28CD007D006D005D004D003D002D001DE
:0D08F000D000D0D0D082D083D0F0D0E03244
:03000300020C6389
:050C6300D281D28232B3
:030013000209F1EE
:0D09F100C0E0C0D075D000C000C006C00737
:1009FE0020B30A050BE50B7002050A80F3C3E50B65
:100A0E009428E50A943D4079C3E50B9428E50A94B1
:100A1E003D406E750A00750B0030B30A050BE50BF1
:100A2E007002050A80F3C3E50B94B8E50A940B40F7
:100A3E0050751100750800750900C3E5099408E5A5
:100A4E00089400503C750A00750B0020B30A050B84
:100A5E00E50B7002050A80F3D3E50B94E8E50A94E2
:100A6E000340117F01AE09A806EF08800123D8FDCF
:100A7E00FFEF421120B3FD0509E50970020508805C
:010A8E00B9AE
:0B0A8F00D007D006D000D0D0D0E0325D
:100C3A000000750C05750D90750E47150EAF0EEF79
:100C4A0070F9150DAF0DEF70F2150CAF0CEF70EBDC
:010C5A002277
:03000000020A9A57
:0C0A9A00787FE4F6D8FD758120020AE1A7
:100BF600C2D5E830E70FB2D5E4C39BFBE49AFAE42A
:100C060099F9E498F8EC30E717B2D5120C2C1209D2
:100C16005FE4C39BFBE49AFAE499F9E498F880034D
:100C260012095F30D50DE4C39FFFE49EFEE49DFDEF
:040C3600E49CFC221C
:1008FD00D083D082F8E4937012740193700DA3A38A
:10090D0093F8740193F5828883E47374029368609D
:06091D00EFA3A3A380DF9D
:100AA600020B98E493A3F8E493A34003F68001F2C3
:100AB60008DFF48029E493A3F85407240CC8C33351
:100AC600C4540F4420C8834004F456800146F6DF20
:100AD600E4800B0102040810204080900C5BE47E49
:100AE600019360BCA3FF543F30E509541FFEE49315
:100AF600A360010ECF54C025E060A840B8E493A3DC
:100B0600FAE493A3F8E493A3C8C582C8CAC583CA06
:100B1600F0A3C8C582C8CAC583CADFE9DEE780BEBE
:010C62000091
:1009230075F008758200EF2FFFEE33FECD33CDCC8B
:1009330033CCC58233C5829BED9AEC99E58298400E
:100943000CF582EE9BFEED9AFDEC99FC0FD5F0D6EB
:10095300E4CEFBE4CDFAE4CCF9A88222B800C1B915
:100963000059BA002DEC8BF084CFCECDFCE5F0CB53
:10097300F97818EF2FFFEE33FEED33FDEC33FCEB8C
:1009830033FB10D703994004EB99FB0FD8E5E4F947
:10099300FA227818EF2FFFEE33FEED33FDEC33FC34
:1009A300C933C910D7059BE99A4007EC9BFCE99A28
:1009B300F90FD8E0E4C9FAE4CCFB2275F010EF2F6D
:1009C300FFEE33FEED33FDCC33CCC833C810D7076D
:1009D3009BEC9AE899400AED9BFDEC9AFCE899F8A8
:0E09E3000FD5F0DAE4CDFBE4CCFAE4C8F9223B
:00000001FF
