:040C2100020804E2DF
:100BF700120B06E50AB404067508037509E8E50A49
:0B0C0700B404F07508057509DC80E8F6
:100B0600D2AFD2A9D2A8D2AAD28AD2B8C28CC28C6B
:100B1600758911AE08AF09AB07AA06C374DF9BFF40
:100B260074B19AFEE49400FDE49400FCE4FB7A01BF
:100B3600F9F8120BB3AF038F8AAE08AF09AB07AA59
:100B460006C374DF9BFF74B19AFEE49400FDE4943F
:100B560000FCE4FB7A01F9F8120BB38F8CC293D236
:020B66008C22DF
:03000B000208DB0D
:1008DB00C0E0C0F0C083C082C0D075D000C000C0E3
:1008EB0001C002C003C004C005C006C007C28CAE65
:1008FB0008AF09AB07AA06309346C374DF9BFF749E
:10090B00B19AFEE49400FDE49400FCE4FB7A01F957
:10091B00F8120BB3AF038F8AAE08AF09AB07AA0669
:10092B00C374DF9BFF74B19AFEE49400FDE4940062
:10093B00FCE4FB7A01F9F8120BB38F8CC293804461
:10094B00C374FF9BFF74FF9AFEE49400FDE49400D4
:10095B00FCE4FB7A01F9F8120BB3AF038F8AAE08F4
:10096B00AF09AB07AA06C374FF9BFF74FF9AFEE4A3
:10097B009400FDE49400FCE4FB7A01F9F8120BB34C
:10098B008F8CD293D28CD007D006D005D004D00355
:10099B00D002D001D000D0D0D082D083D0F0D0E024
:0109AB003219
:03000300020B6885
:100B6800C0E0C0F0C083C082C0D075D000C000C053
:100B780001C002C003C004C005C006C007C281D2BC
:100B880082120C12120C12120C12120C12120C12EB
:100B9800D007D006D005D004D003D002D001D000B1
:0B0BA800D0D0D082D083D0F0D0E0325B
:0E0C120000007F057E907D47DDFEDEFCDFFAF0
:010C200022B1
:03001300020800E0
:10080000C0E0C0D075D000C000C002C003C004C0AA
:0508100005C006C00751
:10081500750A0020B3070FBF00010E80F6C3EF94E1
:10082500D0EE942040147E007F0020B3FD30B3FD50
:1008350030B3150FBF00010E80F67E007F0030B388
:10084500070FBF00010E80F6C3EF9434EE94074006
:1008550003430501E4FBFA30B3FD7E007F0030B3AE
:10086500070FBF00010E80F6C3EF9434EE940740E6
:100875000FAC037402A804088002C333D8FC4205F8
:100885000BBB00010AEB64074A70CC7A007B003091
:10089500B3FD7E007F0030B3070FBF00010E80F669
:1008A500C3EF9434EE9407400FAC037401A8040819
:1008B5008002C333D8FC420A0BBB00010AEB640873
:0308C5004A70CCAA
:1008C800D007D006D005D004D003D002D000D0D0B5
:0308D800D0E0323B
:03000000020A7A77
:0C0A7A00787FE4F6D8FD75810A020AC1FD
:100BB300C2D5E830E70FB2D5E4C39BFBE49AFAE46D
:100BC30099F9E498F8EC30E717B2D5120BE912095A
:100BD300E8E4C39BFBE49AFAE499F9E498F8800308
:100BE3001209E830D50DE4C39FFFE49EFEE49DFDAA
:040BF300E49CFC2260
:100A8600020BF7E493A3F8E493A34003F68001F284
:100A960008DFF48029E493A3F85407240CC8C33371
:100AA600C4540F4420C8834004F456800146F6DF40
:100AB600E4800B0102040810204080900C21E47EA3
:100AC600019360BCA3FF543F30E509541FFEE49335
:100AD600A360010ECF54C025E060A840B8E493A3FC
:100AE600FAE493A3F8E493A3C8C582C8CAC583CA27
:100AF600F0A3C8C582C8CAC583CADFE9DEE780BEDF
:010C250000CE
:1009AC0075F008758200EF2FFFEE33FECD33CDCC02
:1009BC0033CCC58233C5829BED9AEC99E582984085
:1009CC000CF582EE9BFEED9AFDEC99FC0FD5F0D662
:1009DC00E4CEFBE4CDFAE4CCF9A88222B800C1B98C
:1009EC000059BA002DEC8BF084CFCECDFCE5F0CBCA
:1009FC00F97818EF2FFFEE33FEED33FDEC33FCEB03
:100A0C0033FB10D703994004EB99FB0FD8E5E4F9BD
:100A1C00FA227818EF2FFFEE33FEED33FDEC33FCAA
:100A2C00C933C910D7059BE99A4007EC9BFCE99A9E
:100A3C00F90FD8E0E4C9FAE4CCFB2275F010EF2FE3
:100A4C00FFEE33FEED33FDCC33CCC833C810D707E3
:100A5C009BEC9AE899400AED9BFDEC9AFCE899F81E
:0E0A6C000FD5F0DAE4CDFBE4CCFAE4C8F922B1
:00000001FF
