:040B2100020C3A98F0
:100A8400E4F508F509C293E4F50AF50B120B160513
:100A94000BE50B7002050AC39464E50A940040EC6C
:100AA400D293E4F50AF50B120B16050BE50B700255
:100AB400050AC3940FE50A940040EC0509E50970A2
:0E0AC400020508C39464E508940040B980B2AE
:100A2E00D2AFD2A9C28C758901AE0CAF0DAB07AA9D
:100A3E0006C374DF9BFF74B19AFEE49400FDE49448
:100A4E0000FCE4FB7A01F9F8120AD2AF038F8AAEEA
:100A5E000CAF0DAB07AA06C374DF9BFF74B19AFEF1
:100A6E00E49400FDE49400FCE4FB7A01F9F8120A28
:060A7E00D28F8CC293220E
:03000B00020800E8
:10080000C0E0C0F0C083C082C0D075D000C000C0BE
:1008100001C002C003C004C005C006C007C28CAE40
:100820000CAF0DAB07AA06309346C374DF9BFF7471
:10083000B19AFEE49400FDE49400FCE4FB7A01F933
:10084000F8120AD2AF038F8AAE0CAF0DAB07AA061F
:10085000C374DF9BFF74B19AFEE49400FDE494003E
:10086000FCE4FB7A01F9F8120AD28F8CC29380441F
:10087000C374FF9BFF74FF9AFEE49400FDE49400B0
:10088000FCE4FB7A01F9F8120AD2AF038F8AAE0CAE
:10089000AF0DAB07AA06C374FF9BFF74FF9AFEE47B
:1008A0009400FDE49400FCE4FB7A01F9F8120AD20A
:1008B0008F8CD293120000D28CD007D006D005D0F6
:1008C00004D003D002D001D000D0D0D082D083D0C9
:0408D000F0D0E03252
:0A0B160000007F027E26DEFEDFFCF9
:010B200022B2
:030000000209A250
:0C09A200787FE4F6D8FD75810D0209E9AC
:100AD200C2D5E830E70FB2D5E4C39BFBE49AFAE44F
:100AE20099F9E498F8EC30E717B2D5120B0812091D
:100AF20010E4C39BFBE49AFAE499F9E498F88003C2
:100B020012091030D50DE4C39FFFE49EFEE49DFD63
:040B1200E49CFC2241
:1009AE00020A84E493A3F8E493A34003F68001F2D1
:1009BE0008DFF48029E493A3F85407240CC8C3334A
:1009CE00C4540F4420C8834004F456800146F6DF19
:1009DE00E4800B0102040810204080900B21E47E7D
:1009EE00019360BCA3FF543F30E509541FFEE4930E
:1009FE00A360010ECF54C025E060A840B8E493A3D5
:100A0E00FAE493A3F8E493A3C8C582C8CAC583CAFF
:100A1E00F0A3C8C582C8CAC583CADFE9DEE780BEB7
:010B250000CF
:1008D40075F008758200EF2FFFEE33FECD33CDCCDB
:1008E40033CCC58233C5829BED9AEC99E58298405E
:1008F4000CF582EE9BFEED9AFDEC99FC0FD5F0D63B
:10090400E4CEFBE4CDFAE4CCF9A88222B800C1B964
:100914000059BA002DEC8BF084CFCECDFCE5F0CBA2
:10092400F97818EF2FFFEE33FEED33FDEC33FCEBDB
:1009340033FB10D703994004EB99FB0FD8E5E4F996
:10094400FA227818EF2FFFEE33FEED33FDEC33FC83
:10095400C933C910D7059BE99A4007EC9BFCE99A77
:10096400F90FD8E0E4C9FAE4CCFB2275F010EF2FBC
:10097400FFEE33FEED33FDCC33CCC833C810D707BC
:100984009BEC9AE899400AED9BFDEC9AFCE899F8F7
:0E0994000FD5F0DAE4CDFBE4CCFAE4C8F9228A
:00000001FF
