:040B2000020804E2E1
:100AC900120A2BD28CD281C282E509B4E8F7E50873
:100AD900B403F2C281C282120B0AE4F50AF50BC211
:100AE90081D282120B0A050BE50B7002050AC39429
:100AF90005E50A6480948040E67508047509E2807A
:010B0900C427
:100A2B00D2AFD2A9D2A8D2B8C28C758901AE08AF09
:100A3B0009AB07AA06C374DF9BFF74B19AFEE4945B
:100A4B0000FDE49400FCE4FB7A01F9F8120A85AF8F
:100A5B00038F8AAE08AF09AB07AA06C374DF9BFFEF
:100A6B0074B19AFEE49400FDE49400FCE4FB7A017B
:0A0A7B00F9F8120A858F8CC293224D
:03000B00020800E8
:10080000C0E0C0F0C083C082C0D075D000C000C0BE
:1008100001C002C003C004C005C006C007C28CAE40
:1008200008AF09AB07AA06309346C374DF9BFF7479
:10083000B19AFEE49400FDE49400FCE4FB7A01F933
:10084000F8120A85AF038F8AAE08AF09AB07AA0674
:10085000C374DF9BFF74B19AFEE49400FDE494003E
:10086000FCE4FB7A01F9F8120A858F8CC29380446C
:10087000C374FF9BFF74FF9AFEE49400FDE49400B0
:10088000FCE4FB7A01F9F8120A85AF038F8AAE08FF
:10089000AF09AB07AA06C374FF9BFF74FF9AFEE47F
:1008A0009400FDE49400FCE4FB7A01F9F8120A8557
:1008B0008F8CD293D28CD007D006D005D004D00331
:1008C000D002D001D000D0D0D082D083D0F0D0E000
:0108D00032F5
:03000300020B19D4
:070B19007508037509E832BD
:0E0B0A0000007F057E907D47DDFEDEFCDFFAF9
:010B180022BA
:0300000002099F53
:0C099F00787FE4F6D8FD75810B0209E6B4
:100A8500C2D5E830E70FB2D5E4C39BFBE49AFAE49C
:100A950099F9E498F8EC30E717B2D5120ABB1209B8
:100AA5000DE4C39BFBE49AFAE499F9E498F8800312
:100AB50012090D30D50DE4C39FFFE49EFEE49DFDB4
:040AC500E49CFC228F
:1009AB00020AC9E493A3F8E493A34003F68001F28F
:1009BB0008DFF48029E493A3F85407240CC8C3334D
:1009CB00C4540F4420C8834004F456800146F6DF1C
:1009DB00E4800B0102040810204080900B20E47E81
:1009EB00019360BCA3FF543F30E509541FFEE49311
:1009FB00A360010ECF54C025E060A840B8E493A3D8
:100A0B00FAE493A3F8E493A3C8C582C8CAC583CA02
:100A1B00F0A3C8C582C8CAC583CADFE9DEE780BEBA
:010B240000D0
:1008D10075F008758200EF2FFFEE33FECD33CDCCDE
:1008E10033CCC58233C5829BED9AEC99E582984061
:1008F1000CF582EE9BFEED9AFDEC99FC0FD5F0D63E
:10090100E4CEFBE4CDFAE4CCF9A88222B800C1B967
:100911000059BA002DEC8BF084CFCECDFCE5F0CBA5
:10092100F97818EF2FFFEE33FEED33FDEC33FCEBDE
:1009310033FB10D703994004EB99FB0FD8E5E4F999
:10094100FA227818EF2FFFEE33FEED33FDEC33FC86
:10095100C933C910D7059BE99A4007EC9BFCE99A7A
:10096100F90FD8E0E4C9FAE4CCFB2275F010EF2FBF
:10097100FFEE33FEED33FDCC33CCC833C810D707BF
:100981009BEC9AE899400AED9BFDEC9AFCE899F8FA
:0E0991000FD5F0DAE4CDFBE4CCFAE4C8F9228D
:00000001FF
