:040BBA00020804E247
:100B7200120A2B120B90E50AB404067508037509D4
:0E0B8200E8E50AB404F07508057509DC80E8A2
:100A2B00D2AFD2A9D2A8D2AAD2B8C28CC28C7589A5
:100A3B0011AE08AF09AB07AA06C374DF9BFF74B1F5
:100A4B009AFEE49400FDE49400FCE4FB7A01F9F8CF
:100A5B00120B2EAF038F8AAE08AF09AB07AA06C3E2
:100A6B0074DF9BFF74B19AFEE49400FDE49400FCE8
:100A7B00E4FB7A01F9F8120B2E8F8CC293D28C22E5
:03000B00020800E8
:10080000C0E0C0F0C083C082C0D075D000C000C0BE
:1008100001C002C003C004C005C006C007C28CAE40
:1008200008AF09AB07AA06309346C374DF9BFF7479
:10083000B19AFEE49400FDE49400FCE4FB7A01F933
:10084000F8120B2EAF038F8AAE08AF09AB07AA06CA
:10085000C374DF9BFF74B19AFEE49400FDE494003E
:10086000FCE4FB7A01F9F8120B2E8F8CC2938044C2
:10087000C374FF9BFF74FF9AFEE49400FDE49400B0
:10088000FCE4FB7A01F9F8120B2EAF038F8AAE0855
:10089000AF09AB07AA06C374FF9BFF74FF9AFEE47F
:1008A0009400FDE49400FCE4FB7A01F9F8120B2EAD
:1008B0008F8CD293D28CD007D006D005D004D00331
:1008C000D002D001D000D0D0D082D083D0F0D0E000
:0108D00032F5
:03000300020AE30B
:100AE300C0E0C0F0C083C082C0D075D000C000C0D9
:100AF30001C002C003C004C005C006C007C281D242
:100B030082120BA3120BA3120BA3120BA3120BA3A0
:100B1300D007D006D005D004D003D002D001D00036
:0B0B2300D0D0D082D083D0F0D0E032E0
:0E0BA30000007F057E907D47DDFEDEFCDFFA60
:010BB1002221
:03001300020A8B53
:100A8B00C0E0C0F0C083C082C0D075D000C000C031
:0D0A9B0001C002C003C004C005C006C007B2
:100AA80020B30A050CE50C70F7050B80F3E50CB4D0
:100AB800E20EE50BB41E09FF120BB2AF0C120BB21B
:100AC800D007D006D005D004D003D002D001D00082
:0B0AD800D0D0D082D083D0F0D0E0322C
:100B900053877F759850438E04759CD9438E0143CB
:030BA0008E102292
:080BB2008F993099FDC29922D0
:0300000002099F53
:0C099F00787FE4F6D8FD75810C0209E6B3
:100B2E00C2D5E830E70FB2D5E4C39BFBE49AFAE4F2
:100B3E0099F9E498F8EC30E717B2D5120B64120964
:100B4E000DE4C39BFBE49AFAE499F9E498F8800368
:100B5E0012090D30D50DE4C39FFFE49EFEE49DFD0A
:040B6E00E49CFC22E5
:1009AB00020B72E493A3F8E493A34003F68001F2E5
:1009BB0008DFF48029E493A3F85407240CC8C3334D
:1009CB00C4540F4420C8834004F456800146F6DF1C
:1009DB00E4800B0102040810204080900BBAE47EE7
:1009EB00019360BCA3FF543F30E509541FFEE49311
:1009FB00A360010ECF54C025E060A840B8E493A3D8
:100A0B00FAE493A3F8E493A3C8C582C8CAC583CA02
:100A1B00F0A3C8C582C8CAC583CADFE9DEE780BEBA
:010BBE000036
:1008D10075F008758200EF2FFFEE33FECD33CDCCDE
:1008E10033CCC58233C5829BED9AEC99E582984061
:1008F1000CF582EE9BFEED9AFDEC99FC0FD5F0D63E
:10090100E4CEFBE4CDFAE4CCF9A88222B800C1B967
:100911000059BA002DEC8BF084CFCECDFCE5F0CBA5
:10092100F97818EF2FFFEE33FEED33FDEC33FCEBDE
:1009310033FB10D703994004EB99FB0FD8E5E4F999
:10094100FA227818EF2FFFEE33FEED33FDEC33FC86
:10095100C933C910D7059BE99A4007EC9BFCE99A7A
:10096100F90FD8E0E4C9FAE4CCFB2275F010EF2FBF
:10097100FFEE33FEED33FDCC33CCC833C810D707BF
:100981009BEC9AE899400AED9BFDEC9AFCE899F8FA
:0E0991000FD5F0DAE4CDFBE4CCFAE4C8F9228D
:00000001FF
