:040B7700020C04E286
:0A0B6D00120A2B120AD48F0880F937
:100A2B00D2AFD2A9D2A8D2B8C28CC28C758911AE62
:100A3B000CAF0DAB07AA06C374DF9BFF74B19AFE14
:100A4B00E49400FDE49400FCE4FB7A01F9F8120B4A
:100A5B001AAF038F8AAE0CAF0DAB07AA06C374DFB8
:100A6B009BFF74B19AFEE49400FDE49400FCE4FB5C
:0E0A7B007A01F9F8120B1A8F8CC293D28C22DA
:03000B00020800E8
:10080000C0E0C0F0C083C082C0D075D000C000C0BE
:1008100001C002C003C004C005C006C007C28CAE40
:100820000CAF0DAB07AA06309346C374DF9BFF7471
:10083000B19AFEE49400FDE49400FCE4FB7A01F933
:10084000F8120B1AAF038F8AAE0CAF0DAB07AA06D6
:10085000C374DF9BFF74B19AFEE49400FDE494003E
:10086000FCE4FB7A01F9F8120B1A8F8CC2938044D6
:10087000C374FF9BFF74FF9AFEE49400FDE49400B0
:10088000FCE4FB7A01F9F8120B1AAF038F8AAE0C65
:10089000AF0DAB07AA06C374FF9BFF74FF9AFEE47B
:1008A0009400FDE49400FCE4FB7A01F9F8120B1AC1
:1008B0008F8CD293D28CD007D006D005D004D00331
:1008C000D002D001D000D0D0D082D083D0F0D0E000
:0108D00032F5
:03000300020A8965
:100A8900C0E0C0F0C083C082C0D075D000C000C033
:100A990001C002C003C004C005C006C007C281D29C
:100AA90082120B5E120B5E120B5E120B5E120B5E54
:100AB900D007D006D005D004D003D002D001D00091
:0B0AC900D0D0D082D083D0F0D0E0323B
:0E0B5E0000007F057E907D47DDFEDEFCDFFAA5
:010B6C002266
:100AD40020B3FD20B304050B80F9D3E50B94D07447
:100AE4008094A0400620B3FD30B3FDE4FF30B3048E
:100AF400050B80F930B3FD0FBF08F2E4FF30B304F7
:100B0400050B80F930B3FD0FBF08F230B3FDE509E2
:050B1400B4A502AF0AC8
:010B190022B9
:0300000002099F53
:0C099F00787FE4F6D8FD7581200209E69F
:100B1A00C2D5E830E70FB2D5E4C39BFBE49AFAE406
:100B2A0099F9E498F8EC30E717B2D5120B5012098C
:100B3A000DE4C39BFBE49AFAE499F9E498F880037C
:100B4A0012090D30D50DE4C39FFFE49EFEE49DFD1E
:040B5A00E49CFC22F9
:1009AB00020B6DE493A3F8E493A34003F68001F2EA
:1009BB0008DFF48029E493A3F85407240CC8C3334D
:1009CB00C4540F4420C8834004F456800146F6DF1C
:1009DB00E4800B0102040810204080900B77E47E2A
:1009EB00019360BCA3FF543F30E509541FFEE49311
:1009FB00A360010ECF54C025E060A840B8E493A3D8
:100A0B00FAE493A3F8E493A3C8C582C8CAC583CA02
:100A1B00F0A3C8C582C8CAC583CADFE9DEE780BEBA
:010B7B000079
:1008D10075F008758200EF2FFFEE33FECD33CDCCDE
:1008E10033CCC58233C5829BED9AEC99E582984061
:1008F1000CF582EE9BFEED9AFDEC99FC0FD5F0D63E
:10090100E4CEFBE4CDFAE4CCF9A88222B800C1B967
:100911000059BA002DEC8BF084CFCECDFCE5F0CBA5
:10092100F97818EF2FFFEE33FEED33FDEC33FCEBDE
:1009310033FB10D703994004EB99FB0FD8E5E4F999
:10094100FA227818EF2FFFEE33FEED33FDEC33FC86
:10095100C933C910D7059BE99A4007EC9BFCE99A7A
:10096100F90FD8E0E4C9FAE4CCFB2275F010EF2FBF
:10097100FFEE33FEED33FDCC33CCC833C810D707BF
:100981009BEC9AE899400AED9BFDEC9AFCE899F8FA
:0E0991000FD5F0DAE4CDFBE4CCFAE4C8F9228D
:00000001FF
