:100800001208E2E50824FE602004703AE4F50BAF1C
:100810000BE4FCFDFE7BFF7AFFF9F8D31208C04021
:1008200029D281C282050B80E6E4F50BAF0BE4FC14
:10083000FDFE7BFF7AFFF9F8D31208C0400CC2819D
:10084000D282050B80E6C281C28220B30A050AE586
:100850000A70F7050980F3C3E50A9434E5099407A3
:1008600040A1E4F508F509F50A30B30A050AE50ADE
:1008700070F7050980F3C3E50A94B8E509940B40C5
:1008800082E4F50BE4F509F50A20B30A050AE50A46
:1008900070F7050980F3D3E50A9434E5099407401D
:1008A0000D7F01A80BEF08800123D8FD420820B37B
:1008B000FD050BE50BB408CC30B30302080380F848
:0B08E200D2AFD2A9D2A8D2B8D2BA225D
:030000000208D61D
:0C08D600787FE4F6D8FD75810D02080063
:1008C000EB9FF5F0EA9E42F0E99D42F0EC6480C8AF
:0608D00064809845F0224F
:00000001FF
