:0A0C5B00010F00020C04E2010E007C
:100A8E00120BABD282D281E50F1208000B14000AB2
:100A9E00BC010AC8020B14030AD4040ADC050AE8D6
:100AAE00060AF4080AFC090B080A00000A95750CE0
:100ABE0004750DE2C281D28280CD750C04750DE2F3
:100ACE00D281C28280C1750C06750D4080B9C2817B
:100ADE00D282750C06750D4080ADD281C282750C26
:100AEE0006750D4080A1750C03750D528099C2815B
:100AFE00D282750C03750D52808DD281C282750C17
:100B0E0003750D528081D281D282020A95020A9516
:010B1E0022B4
:100BAB00D2AFD2A9D2A8D2AAD2BAC28CC28C758922
:100BBB0011AE0CAF0DAB07AA06E4F9F8C374DF9BBB
:100BCB00FF74B19AFEE499FDE498FC7B007A0179FD
:100BDB00007800120C17AC00AD01AE02AF038F8A88
:100BEB00AE0CAF0DAB07AA06E4F9F8C374DF9BFF9D
:100BFB0074B19AFEE499FDE498FC7B007A017900CC
:0C0C0B007800120C178F8CC293D28C2240
:03000B000208F4F4
:1008F400C0E0C0F0C083C082C0D075D000C000C0CA
:1009040001C002C003C004C005C006C007C28C30C9
:10091400935AAE0CAF0DAB07AA06E4F9F8C374DF23
:100924009BFF74B19AFEE499FDE498FC7B007A0184
:1009340079007800120C17AC00AD01AE02AF038F42
:100944008AAE0CAF0DAB07AA06E4F9F8C374DF9BBB
:10095400FF74B19AFEE499FDE498FC7B007A017976
:10096400007800120C178F8CC2938058AE0CAF0D18
:10097400AB07AA06E4F9F8C374FF9BFF74FF9AFE61
:10098400E499FDE498FC7B007A0179007800120C6C
:1009940017AC00AD01AE02AF038F8AAE0CAF0DAB46
:1009A40007AA06E4F9F8C374FF9BFF74FF9AFEE4F8
:1009B40099FDE498FC7B007A0179007800120C1709
:1009C4008F8CD293D28CD007D006D005D004D0031C
:1009D400D002D001D000D0D0D082D083D0F0D0E0EB
:0109E40032E0
:03000300020C6686
:050C6600D281D28232B0
:030013000209E5FA
:0D09E500C0E0C0D075D000C000C006C00743
:1009F20020B30A050BE50B7002050A80F3C3E50B71
:100A02009428E50A943D4079C3E50B9428E50A94BD
:100A12003D406E750A00750B0030B30A050BE50BFD
:100A22007002050A80F3C3E50B94B8E50A940B4003
:100A320050750F00750800750900C3E5099408E5B3
:100A4200089400503C750A00750B0020B30A050B90
:100A5200E50B7002050A80F3D3E50B94E8E50A94EE
:100A62000340117F01AE09A806EF08800123D8FDDB
:100A7200FFEF420F20B3FD0509E50970020508806A
:010A8200B9BA
:0B0A8300D007D006D000D0D0D0E03269
:03000000020B1FD1
:0C0B1F00787FE4F6D8FD758120020B669B
:100C1700C2D5E830E70FB2D5E4C39BFBE49AFAE408
:100C270099F9E498F8EC30E717B2D5120C4D120891
:100C370062E4C39BFBE49AFAE499F9E498F8800329
:100C470012086230D50DE4C39FFFE49EFEE49DFDCC
:040C5700E49CFC22FB
:10080000D083D082F8E4937012740193700DA3A387
:1008100093F8740193F5828883E47374029368609B
:06082000EFA3A3A380DF9B
:100B2B00020A8EE493A3F8E493A34003F68001F248
:100B3B0008DFF48029E493A3F85407240CC8C333CB
:100B4B00C4540F4420C8834004F456800146F6DF9A
:100B5B00E4800B0102040810204080900C5BE47EC3
:100B6B00019360BCA3FF543F30E509541FFEE4938F
:100B7B00A360010ECF54C025E060A840B8E493A356
:100B8B00FAE493A3F8E493A3C8C582C8CAC583CA81
:100B9B00F0A3C8C582C8CAC583CADFE9DEE780BE39
:010C6500008E
:1008260075F008758200EF2FFFEE33FECD33CDCC89
:1008360033CCC58233C5829BED9AEC99E58298400C
:100846000CF582EE9BFEED9AFDEC99FC0FD5F0D6E9
:10085600E4CEFBE4CDFAE4CCF9A88222B800C1B913
:100866000059BA002DEC8BF084CFCECDFCE5F0CB51
:10087600F97818EF2FFFEE33FEED33FDEC33FCEB8A
:1008860033FB10D703994004EB99FB0FD8E5E4F945
:10089600FA227818EF2FFFEE33FEED33FDEC33FC32
:1008A600C933C910D7059BE99A4007EC9BFCE99A26
:1008B600F90FD8E0E4C9FAE4CCFB2275F010EF2F6B
:1008C600FFEE33FEED33FDCC33CCC833C810D7076B
:1008D6009BEC9AE899400AED9BFDEC9AFCE899F8A6
:0E08E6000FD5F0DAE4CDFBE4CCFAE4C8F92239
:00000001FF
